{
  "contractName": "Madicine",
  "abi": [
    {
      "inputs": [
        {
          "name": "Manu",
          "type": "address"
        },
        {
          "name": "Des",
          "type": "bytes32"
        },
        {
          "name": "RM",
          "type": "bytes32"
        },
        {
          "name": "Quant",
          "type": "uint256"
        },
        {
          "name": "Shpr",
          "type": "address"
        },
        {
          "name": "Rcvr",
          "type": "address"
        },
        {
          "name": "RcvrType",
          "type": "uint256"
        }
      ],
      "payable": false,
      "stateMutability": "nonpayable",
      "type": "constructor"
    },
    {
      "anonymous": false,
      "inputs": [
        {
          "indexed": true,
          "name": "BatchID",
          "type": "address"
        },
        {
          "indexed": true,
          "name": "Shipper",
          "type": "address"
        },
        {
          "indexed": true,
          "name": "Receiver",
          "type": "address"
        },
        {
          "indexed": false,
          "name": "TransporterType",
          "type": "uint256"
        },
        {
          "indexed": false,
          "name": "Status",
          "type": "uint256"
        }
      ],
      "name": "ShippmentUpdate",
      "type": "event"
    },
    {
      "constant": true,
      "inputs": [],
      "name": "getMadicineInfo",
      "outputs": [
        {
          "name": "Manu",
          "type": "address"
        },
        {
          "name": "Des",
          "type": "bytes32"
        },
        {
          "name": "RM",
          "type": "bytes32"
        },
        {
          "name": "Quant",
          "type": "uint256"
        },
        {
          "name": "Shpr",
          "type": "address"
        }
      ],
      "payable": false,
      "stateMutability": "view",
      "type": "function"
    },
    {
      "constant": true,
      "inputs": [],
      "name": "getWDP",
      "outputs": [
        {
          "name": "WDP",
          "type": "address[3]"
        }
      ],
      "payable": false,
      "stateMutability": "view",
      "type": "function"
    },
    {
      "constant": true,
      "inputs": [],
      "name": "getBatchIDStatus",
      "outputs": [
        {
          "name": "",
          "type": "uint256"
        }
      ],
      "payable": false,
      "stateMutability": "view",
      "type": "function"
    },
    {
      "constant": false,
      "inputs": [
        {
          "name": "shpr",
          "type": "address"
        }
      ],
      "name": "pickPackage",
      "outputs": [],
      "payable": false,
      "stateMutability": "nonpayable",
      "type": "function"
    },
    {
      "constant": false,
      "inputs": [
        {
          "name": "Rcvr",
          "type": "address"
        }
      ],
      "name": "receivedPackage",
      "outputs": [
        {
          "name": "rcvtype",
          "type": "uint256"
        }
      ],
      "payable": false,
      "stateMutability": "nonpayable",
      "type": "function"
    },
    {
      "constant": false,
      "inputs": [
        {
          "name": "receiver",
          "type": "address"
        },
        {
          "name": "sender",
          "type": "address"
        }
      ],
      "name": "sendWD",
      "outputs": [],
      "payable": false,
      "stateMutability": "nonpayable",
      "type": "function"
    },
    {
      "constant": false,
      "inputs": [
        {
          "name": "receiver",
          "type": "address"
        }
      ],
      "name": "recievedWD",
      "outputs": [],
      "payable": false,
      "stateMutability": "nonpayable",
      "type": "function"
    },
    {
      "constant": false,
      "inputs": [
        {
          "name": "receiver",
          "type": "address"
        },
        {
          "name": "sender",
          "type": "address"
        }
      ],
      "name": "sendDP",
      "outputs": [],
      "payable": false,
      "stateMutability": "nonpayable",
      "type": "function"
    },
    {
      "constant": false,
      "inputs": [
        {
          "name": "receiver",
          "type": "address"
        }
      ],
      "name": "recievedDP",
      "outputs": [],
      "payable": false,
      "stateMutability": "nonpayable",
      "type": "function"
    }
  ],
  "bytecode": "0x608060405234801561001057600080fd5b5060405160e080610b86833981018060405260e081101561003057600080fd5b508051602082015160408301516060840151608085015160a086015160c09096015160008054600160a060020a0319908116600160a060020a03808a1691821790935560058054831690911790556001878155600287905560038690556004805490921692851692909217905595969495939492939192918114156100cf5760068054600160a060020a031916600160a060020a0384161790556100f4565b80600214156100f45760078054600160a060020a031916600160a060020a0384161790555b50505050505050610a7c8061010a6000396000f3fe608060405260043610610092577c0100000000000000000000000000000000000000000000000000000000600035046301a9a23e81146100975780631d2aafc8146100e45780634175699d1461013557806352b999681461016a578063638e9a3d146101af578063952565cf146101e2578063a19ffd6014610215578063bd78683514610250578063d2f3fcc71461028b575b600080fd5b3480156100a357600080fd5b506100ac6102a0565b6040518082606080838360005b838110156100d15781810151838201526020016100b9565b5050505090500191505060405180910390f35b3480156100f057600080fd5b506100f96102db565b60408051600160a060020a0396871681526020810195909552848101939093526060840191909152909216608082015290519081900360a00190f35b34801561014157600080fd5b506101686004803603602081101561015857600080fd5b5035600160a060020a03166102fe565b005b34801561017657600080fd5b5061019d6004803603602081101561018d57600080fd5b5035600160a060020a031661038d565b60408051918252519081900360200190f35b3480156101bb57600080fd5b50610168600480360360208110156101d257600080fd5b5035600160a060020a03166105fa565b3480156101ee57600080fd5b506101686004803603602081101561020557600080fd5b5035600160a060020a03166107c7565b34801561022157600080fd5b506101686004803603604081101561023857600080fd5b50600160a060020a0381358116916020013516610859565b34801561025c57600080fd5b506101686004803603604081101561027357600080fd5b50600160a060020a0381358116916020013516610937565b34801561029757600080fd5b5061019d6109f1565b6102a8610a11565b5060408051606081018252600654600160a060020a03908116825260075481166020830152600854169181019190915290565b600554600154600254600354600454600160a060020a0394851694169091929394565b600854600160a060020a03828116911614610363576040805160e560020a62461bcd02815260206004820152601e60248201527f5468697320506861726d61206973206e6f74204173736f6369617465642e0000604482015290519081900360640190fd5b60065b6008805460a060020a60ff02191660a060020a83600681111561038557fe5b021790555050565b600654600090600160a060020a03838116911614806103b95750600754600160a060020a038381169116145b1515610435576040805160e560020a62461bcd02815260206004820152603f60248201527f4f6e6c79204173736f63696174652057686f6c6573616c6572206f722044697360448201527f74727562757465722063616e2063616c6c20746869732066756e6374696f6e00606482015290519081900360840190fd5b60085460019060a060020a900460ff16600681111561045057fe5b10156104a6576040805160e560020a62461bcd02815260206004820152601960248201527f50726f64756374206e6f74207069636b65642075702079657400000000000000604482015290519081900360640190fd5b600654600160a060020a0383811691161480156104da5750600160085460a060020a900460ff1660068111156104d857fe5b145b1561054d576008805460a060020a60ff021916740300000000000000000000000000000000000000001790556006546004546040805160028152600360208201528151600160a060020a0394851694909316923092600080516020610a31833981519152928290030190a45060016105f5565b600754600160a060020a0383811691161480156105815750600260085460a060020a900460ff16600681111561057f57fe5b145b156105f5576008805460a060020a60ff0219167404000000000000000000000000000000000000000017905560075460048054604080516003815260208101939093528051600160a060020a0394851694909216923092600080516020610a31833981519152929181900390910190a45060025b919050565b600454600160a060020a03828116911614610685576040805160e560020a62461bcd02815260206004820152602d60248201527f4f6e6c79204173736f636961746520536869707065722063616e2063616c6c2060448201527f746869732066756e6374696f6e00000000000000000000000000000000000000606482015290519081900360840190fd5b600060085460a060020a900460ff16600681111561069f57fe5b146106f4576040805160e560020a62461bcd02815260206004820152601c60248201527f5061636b616765206d75737420626520617420537570706c6965722e00000000604482015290519081900360640190fd5b600654600160a060020a03161561075e576008805460a060020a60ff02191660a060020a17905560065460045460408051600180825260208201528151600160a060020a0394851694909316923092600080516020610a31833981519152928290030190a46107c4565b6008805460a060020a60ff0219167402000000000000000000000000000000000000000017905560075460045460408051600180825260208201528151600160a060020a0394851694909316923092600080516020610a31833981519152928290030190a45b50565b600754600160a060020a03828116911614610852576040805160e560020a62461bcd02815260206004820152602360248201527f54686973204469737472696275746572206973206e6f74204173736f6369617460448201527f65642e0000000000000000000000000000000000000000000000000000000000606482015290519081900360840190fd5b6004610366565b600754600160a060020a038281169116146108e4576040805160e560020a62461bcd02815260206004820152602360248201527f74686973204469737472696275746572206973206e6f74204173736f6369617460448201527f65642e0000000000000000000000000000000000000000000000000000000000606482015290519081900360840190fd5b6008805473ffffffffffffffffffffffffffffffffffffffff1916600160a060020a03841617905560055b6008805460a060020a60ff02191660a060020a83600681111561092e57fe5b02179055505050565b600654600160a060020a038281169116146109c2576040805160e560020a62461bcd02815260206004820152602260248201527f746869732057686f6c6573616c6572206973206e6f74204173736f636961746560448201527f642e000000000000000000000000000000000000000000000000000000000000606482015290519081900360840190fd5b6007805473ffffffffffffffffffffffffffffffffffffffff1916600160a060020a038416179055600261090f565b60085460009060a060020a900460ff166006811115610a0c57fe5b905090565b606060405190810160405280600390602082028038833950919291505056fe7e89c4b1a4e2b51aae84eb1f90e8a34cb792ece5ac5cb63db4830c891220b28da165627a7a7230582020153f20a0d2a99702fce1d9039f9adeea8d66ec08c18616fe57c0b7123621b80029",
  "source": "pragma solidity >=0.4.25 <0.6.0;\n/********************************************** Madicine ******************************************/\n/// @title Madicine\n/// @notice\n/// @dev\ncontract Madicine {\n\n    /// @notice\n    address Owner;\n\n    enum madicineStatus {\n        atcreator,\n        picked4W,\n        picked4D,\n        deliveredatW,\n        deliveredatD,\n        picked4P,\n        deliveredatP\n    }\n\n    // address batchid;\n    bytes32 description;\n    /// @notice\n    bytes32 rawmatriales;\n    /// @notice\n    uint quantity;\n    /// @notice\n    address shipper;\n    /// @notice\n    address manufacturer;\n    /// @notice\n    address wholesaler;\n    /// @notice\n    address distributer;\n    /// @notice\n    address pharma;\n    /// @notice\n    madicineStatus status;\n\n    event ShippmentUpdate(\n        address indexed BatchID,\n        address indexed Shipper,\n        address indexed Receiver,\n        uint TransporterType,\n        uint Status\n    );\n\n    /// @notice\n    /// @dev Create new Madicine Batch by Manufacturer\n    /// @param Manu Manufacturer Ethereum Network Address\n    /// @param Des Description of Madicine Batch\n    /// @param RM RawMatrials for Madicine\n    /// @param Quant Number of units\n    /// @param Shpr Transporter Ethereum Network Address\n    /// @param Rcvr Receiver Ethereum Network Address\n    /// @param RcvrType Receiver Type either Wholesaler(1) or Distributer(2)\n    constructor(\n        address Manu,\n        bytes32 Des,\n        bytes32 RM,\n        uint Quant,\n        address Shpr,\n        address Rcvr,\n        uint RcvrType\n    ) public {\n        Owner = Manu;\n        manufacturer = Manu;\n        description = Des;\n        rawmatriales = RM;\n        quantity = Quant;\n        shipper = Shpr;\n        if(RcvrType == 1) {\n            wholesaler = Rcvr;\n        } else if( RcvrType == 2){\n            distributer = Rcvr;\n        }\n    }\n\n    /// @notice\n    /// @dev Get Madicine Batch basic Details\n    /// @return Madicine Batch Details\n    function getMadicineInfo () public view returns(\n        address Manu,\n        bytes32 Des,\n        bytes32 RM,\n        uint Quant,\n        address Shpr\n    ) {\n        return(\n            manufacturer,\n            description,\n            rawmatriales,\n            quantity,\n            shipper\n        );\n    }\n\n    /// @notice\n    /// @dev Get address Wholesaler, Distributer and Pharma\n    /// @return Address Array\n    function getWDP() public view returns(\n        address[3] memory WDP\n    ) {\n        return (\n            [wholesaler,distributer,pharma]\n        );\n    }\n\n    /// @notice\n    /// @dev Get Madicine Batch Transaction Status\n    /// @return Madicine Transaction Status\n    function getBatchIDStatus() public view returns(\n        uint\n    ) {\n        return uint(status);\n    }\n\n    /// @notice\n    /// @dev Pick Madicine Batch by Associate Transporter\n    /// @param shpr Transporter Ethereum Network Address\n    function pickPackage(\n        address shpr\n    ) public {\n        require(\n            shpr == shipper,\n            \"Only Associate Shipper can call this function\"\n        );\n        require(\n            status == madicineStatus(0),\n            \"Package must be at Supplier.\"\n        );\n\n        if(wholesaler!=address(0x0)){\n            status = madicineStatus(1);\n            emit ShippmentUpdate(address(this),shipper,wholesaler,1,1);\n        }else{\n            status = madicineStatus(2);\n            emit ShippmentUpdate(address(this),shipper,distributer,1,1); ///last parameter shld have value 2\n        }\n    }\n\n    /// @notice\n    /// @dev Received Madicine Batch by Associated Wholesaler or Distributer\n    /// @param Rcvr Wholesaler or Distributer\n    function receivedPackage(\n        address Rcvr\n    ) public\n    returns(uint rcvtype)\n    {\n\n        require(\n            Rcvr == wholesaler || Rcvr == distributer,\n            \"Only Associate Wholesaler or Distrubuter can call this function\"\n        );\n\n        require(\n            uint(status) >= 1,\n            \"Product not picked up yet\"\n        );\n\n        if(Rcvr == wholesaler && status == madicineStatus(1)){\n            status = madicineStatus(3);\n            emit ShippmentUpdate(address(this),shipper,wholesaler,2,3);\n            return 1;\n        } else if(Rcvr == distributer && status == madicineStatus(2)){\n            status = madicineStatus(4);\n            emit ShippmentUpdate(address(this),shipper,distributer,3,4);\n            return 2;\n        }\n    }\n\n    /// @notice\n    /// @dev Update Madicine Batch transaction Status(Pick) in between Wholesaler and Distributer\n    /// @param receiver Distributer Ethereum Network Address\n    /// @param sender Wholesaler Ethereum Network Address\n    function sendWD(\n        address receiver,\n        address sender\n    ) public {\n        require(\n            wholesaler == sender,\n            \"this Wholesaler is not Associated.\"\n        );\n        distributer = receiver;\n        status = madicineStatus(2);\n    }\n\n    /// @notice\n    /// @dev Update Madicine Batch transaction Status(Recieved) in between Wholesaler and Distributer\n    /// @param receiver Distributer\n    function recievedWD(\n        address receiver\n    ) public {\n        require(\n            distributer == receiver,\n            \"This Distributer is not Associated.\"\n        );\n        status = madicineStatus(4);\n    }\n\n    /// @notice\n    /// @dev Update Madicine Batch transaction Status(Pick) in between Distributer and Pharma\n    /// @param receiver Pharma Ethereum Network Address\n    /// @param sender Distributer Ethereum Network Address\n    function sendDP(\n        address receiver,\n        address sender\n    ) public {\n        require(\n            distributer == sender,\n            \"this Distributer is not Associated.\"\n        );\n        pharma = receiver;\n        status = madicineStatus(5);\n    }\n\n    /// @notice\n    /// @dev Update Madicine Batch transaction Status(Recieved) in between Distributer and Pharma\n    /// @param receiver Pharma Ethereum Network Address\n    function recievedDP(\n        address receiver\n    ) public {\n        require(\n            pharma == receiver,\n            \"This Pharma is not Associated.\"\n        );\n        status = madicineStatus(6);\n    }\n}\n",
  "sourcePath": "C:\\Users\\admin\\Downloads\\Blockchain_SupplyChain-master\\Blockchain_SupplyChain-master\\contracts\\contracts\\Madicine.sol",
  "compiler": {
    "name": "solc",
    "version": "0.5.1+commit.c8a2cb62.Emscripten.clang"
  },
  "schemaVersion": "3.0.22",
  "updatedAt": "2020-03-24T07:29:41.053Z",
  "devdoc": {
    "methods": {
      "constructor": {
        "params": {
          "Des": "Description of Madicine Batch",
          "Manu": "Manufacturer Ethereum Network Address",
          "Quant": "Number of units",
          "RM": "RawMatrials for Madicine",
          "Rcvr": "Receiver Ethereum Network Address",
          "RcvrType": "Receiver Type either Wholesaler(1) or Distributer(2)",
          "Shpr": "Transporter Ethereum Network Address"
        }
      },
      "getBatchIDStatus()": {
        "return": "Madicine Transaction Status"
      },
      "getMadicineInfo()": {
        "return": "Madicine Batch Details"
      },
      "getWDP()": {
        "return": "Address Array"
      },
      "pickPackage(address)": {
        "params": {
          "shpr": "Transporter Ethereum Network Address"
        }
      },
      "receivedPackage(address)": {
        "params": {
          "Rcvr": "Wholesaler or Distributer"
        }
      },
      "recievedDP(address)": {
        "params": {
          "receiver": "Pharma Ethereum Network Address"
        }
      },
      "recievedWD(address)": {
        "params": {
          "receiver": "Distributer"
        }
      },
      "sendDP(address,address)": {
        "params": {
          "receiver": "Pharma Ethereum Network Address",
          "sender": "Distributer Ethereum Network Address"
        }
      },
      "sendWD(address,address)": {
        "params": {
          "receiver": "Distributer Ethereum Network Address",
          "sender": "Wholesaler Ethereum Network Address"
        }
      }
    },
    "title": "Madicine"
  },
  "userdoc": {
    "methods": {
      "constructor": "@dev Create new Madicine Batch by Manufacturer",
      "getBatchIDStatus()": {
        "notice": "@dev Get Madicine Batch Transaction Status"
      },
      "getMadicineInfo()": {
        "notice": "@dev Get Madicine Batch basic Details"
      },
      "getWDP()": {
        "notice": "@dev Get address Wholesaler, Distributer and Pharma"
      },
      "pickPackage(address)": {
        "notice": "@dev Pick Madicine Batch by Associate Transporter"
      },
      "receivedPackage(address)": {
        "notice": "@dev Received Madicine Batch by Associated Wholesaler or Distributer"
      },
      "recievedDP(address)": {
        "notice": "@dev Update Madicine Batch transaction Status(Recieved) in between Distributer and Pharma"
      },
      "recievedWD(address)": {
        "notice": "@dev Update Madicine Batch transaction Status(Recieved) in between Wholesaler and Distributer"
      },
      "sendDP(address,address)": {
        "notice": "@dev Update Madicine Batch transaction Status(Pick) in between Distributer and Pharma"
      },
      "sendWD(address,address)": {
        "notice": "@dev Update Madicine Batch transaction Status(Pick) in between Wholesaler and Distributer"
      }
    },
    "notice": "@dev"
  }
}