{
  "contractName": "SupplyChain",
  "abi": [
    {
      "constant": true,
      "inputs": [],
      "name": "Owner",
      "outputs": [
        {
          "name": "",
          "type": "address"
        }
      ],
      "payable": false,
      "stateMutability": "view",
      "type": "function"
    },
    {
      "inputs": [],
      "payable": false,
      "stateMutability": "nonpayable",
      "type": "constructor"
    },
    {
      "anonymous": false,
      "inputs": [
        {
          "indexed": true,
          "name": "EthAddress",
          "type": "address"
        },
        {
          "indexed": false,
          "name": "Name",
          "type": "bytes32"
        }
      ],
      "name": "UserRegister",
      "type": "event"
    },
    {
      "anonymous": false,
      "inputs": [
        {
          "indexed": true,
          "name": "EthAddress",
          "type": "address"
        },
        {
          "indexed": false,
          "name": "Name",
          "type": "bytes32"
        },
        {
          "indexed": false,
          "name": "Role",
          "type": "uint256"
        }
      ],
      "name": "UserRoleRevoked",
      "type": "event"
    },
    {
      "anonymous": false,
      "inputs": [
        {
          "indexed": true,
          "name": "EthAddress",
          "type": "address"
        },
        {
          "indexed": false,
          "name": "Name",
          "type": "bytes32"
        },
        {
          "indexed": false,
          "name": "Role",
          "type": "uint256"
        }
      ],
      "name": "UserRoleRessigne",
      "type": "event"
    },
    {
      "anonymous": false,
      "inputs": [
        {
          "indexed": true,
          "name": "ProductID",
          "type": "address"
        },
        {
          "indexed": true,
          "name": "Supplier",
          "type": "address"
        },
        {
          "indexed": false,
          "name": "Shipper",
          "type": "address"
        },
        {
          "indexed": true,
          "name": "Receiver",
          "type": "address"
        }
      ],
      "name": "RawSupplyInit",
      "type": "event"
    },
    {
      "anonymous": false,
      "inputs": [
        {
          "indexed": true,
          "name": "BatchId",
          "type": "address"
        },
        {
          "indexed": true,
          "name": "Manufacturer",
          "type": "address"
        },
        {
          "indexed": false,
          "name": "shipper",
          "type": "address"
        },
        {
          "indexed": true,
          "name": "Receiver",
          "type": "address"
        }
      ],
      "name": "MadicineNewBatch",
      "type": "event"
    },
    {
      "anonymous": false,
      "inputs": [
        {
          "indexed": false,
          "name": "BatchID",
          "type": "address"
        },
        {
          "indexed": true,
          "name": "Pharma",
          "type": "address"
        },
        {
          "indexed": false,
          "name": "status",
          "type": "uint256"
        }
      ],
      "name": "MadicineStatus",
      "type": "event"
    },
    {
      "constant": false,
      "inputs": [
        {
          "name": "EthAddress",
          "type": "address"
        },
        {
          "name": "Name",
          "type": "bytes32"
        },
        {
          "name": "Location",
          "type": "bytes32"
        },
        {
          "name": "Role",
          "type": "uint256"
        }
      ],
      "name": "registerUser",
      "outputs": [],
      "payable": false,
      "stateMutability": "nonpayable",
      "type": "function"
    },
    {
      "constant": false,
      "inputs": [
        {
          "name": "userAddress",
          "type": "address"
        }
      ],
      "name": "revokeRole",
      "outputs": [],
      "payable": false,
      "stateMutability": "nonpayable",
      "type": "function"
    },
    {
      "constant": false,
      "inputs": [
        {
          "name": "userAddress",
          "type": "address"
        },
        {
          "name": "Role",
          "type": "uint256"
        }
      ],
      "name": "reassigneRole",
      "outputs": [],
      "payable": false,
      "stateMutability": "nonpayable",
      "type": "function"
    },
    {
      "constant": true,
      "inputs": [
        {
          "name": "User",
          "type": "address"
        }
      ],
      "name": "getUserInfo",
      "outputs": [
        {
          "name": "name",
          "type": "bytes32"
        },
        {
          "name": "location",
          "type": "bytes32"
        },
        {
          "name": "ethAddress",
          "type": "address"
        },
        {
          "name": "role",
          "type": "uint8"
        }
      ],
      "payable": false,
      "stateMutability": "view",
      "type": "function"
    },
    {
      "constant": true,
      "inputs": [],
      "name": "getUsersCount",
      "outputs": [
        {
          "name": "count",
          "type": "uint256"
        }
      ],
      "payable": false,
      "stateMutability": "view",
      "type": "function"
    },
    {
      "constant": true,
      "inputs": [
        {
          "name": "index",
          "type": "uint256"
        }
      ],
      "name": "getUserbyIndex",
      "outputs": [
        {
          "name": "name",
          "type": "bytes32"
        },
        {
          "name": "location",
          "type": "bytes32"
        },
        {
          "name": "ethAddress",
          "type": "address"
        },
        {
          "name": "role",
          "type": "uint8"
        }
      ],
      "payable": false,
      "stateMutability": "view",
      "type": "function"
    },
    {
      "constant": false,
      "inputs": [
        {
          "name": "Des",
          "type": "bytes32"
        },
        {
          "name": "FN",
          "type": "bytes32"
        },
        {
          "name": "Loc",
          "type": "bytes32"
        },
        {
          "name": "Quant",
          "type": "uint256"
        },
        {
          "name": "Shpr",
          "type": "address"
        },
        {
          "name": "Rcvr",
          "type": "address"
        }
      ],
      "name": "createRawPackage",
      "outputs": [],
      "payable": false,
      "stateMutability": "nonpayable",
      "type": "function"
    },
    {
      "constant": true,
      "inputs": [],
      "name": "getPackagesCountS",
      "outputs": [
        {
          "name": "count",
          "type": "uint256"
        }
      ],
      "payable": false,
      "stateMutability": "view",
      "type": "function"
    },
    {
      "constant": true,
      "inputs": [
        {
          "name": "index",
          "type": "uint256"
        }
      ],
      "name": "getPackageIdByIndexS",
      "outputs": [
        {
          "name": "packageID",
          "type": "address"
        }
      ],
      "payable": false,
      "stateMutability": "view",
      "type": "function"
    },
    {
      "constant": false,
      "inputs": [
        {
          "name": "pid",
          "type": "address"
        },
        {
          "name": "transportertype",
          "type": "uint256"
        },
        {
          "name": "cid",
          "type": "address"
        }
      ],
      "name": "loadConsingment",
      "outputs": [],
      "payable": false,
      "stateMutability": "nonpayable",
      "type": "function"
    },
    {
      "constant": true,
      "inputs": [],
      "name": "transportCount",
      "outputs": [
        {
          "name": "count",
          "type": "uint256"
        }
      ],
      "payable": false,
      "stateMutability": "view",
      "type": "function"
    },
    {
      "constant": true,
      "inputs": [
        {
          "name": "index",
          "type": "uint256"
        }
      ],
      "name": "getTransportBatchIdByIndex",
      "outputs": [
        {
          "name": "cid",
          "type": "address"
        },
        {
          "name": "transportertype",
          "type": "uint256"
        }
      ],
      "payable": false,
      "stateMutability": "view",
      "type": "function"
    },
    {
      "constant": false,
      "inputs": [
        {
          "name": "pid",
          "type": "address"
        }
      ],
      "name": "rawPackageReceived",
      "outputs": [],
      "payable": false,
      "stateMutability": "nonpayable",
      "type": "function"
    },
    {
      "constant": true,
      "inputs": [],
      "name": "getPackagesCountM",
      "outputs": [
        {
          "name": "count",
          "type": "uint256"
        }
      ],
      "payable": false,
      "stateMutability": "view",
      "type": "function"
    },
    {
      "constant": true,
      "inputs": [
        {
          "name": "index",
          "type": "uint256"
        }
      ],
      "name": "getPackageIDByIndexM",
      "outputs": [
        {
          "name": "BatchID",
          "type": "address"
        }
      ],
      "payable": false,
      "stateMutability": "view",
      "type": "function"
    },
    {
      "constant": false,
      "inputs": [
        {
          "name": "Des",
          "type": "bytes32"
        },
        {
          "name": "RM",
          "type": "bytes32"
        },
        {
          "name": "Quant",
          "type": "uint256"
        },
        {
          "name": "Shpr",
          "type": "address"
        },
        {
          "name": "Rcvr",
          "type": "address"
        },
        {
          "name": "RcvrType",
          "type": "uint256"
        }
      ],
      "name": "manufacturMadicine",
      "outputs": [],
      "payable": false,
      "stateMutability": "nonpayable",
      "type": "function"
    },
    {
      "constant": true,
      "inputs": [],
      "name": "getBatchesCountM",
      "outputs": [
        {
          "name": "count",
          "type": "uint256"
        }
      ],
      "payable": false,
      "stateMutability": "view",
      "type": "function"
    },
    {
      "constant": true,
      "inputs": [
        {
          "name": "index",
          "type": "uint256"
        }
      ],
      "name": "getBatchIdByIndexM",
      "outputs": [
        {
          "name": "packageID",
          "type": "address"
        }
      ],
      "payable": false,
      "stateMutability": "view",
      "type": "function"
    },
    {
      "constant": false,
      "inputs": [
        {
          "name": "batchid",
          "type": "address"
        },
        {
          "name": "cid",
          "type": "address"
        }
      ],
      "name": "madicineReceived",
      "outputs": [],
      "payable": false,
      "stateMutability": "nonpayable",
      "type": "function"
    },
    {
      "constant": false,
      "inputs": [
        {
          "name": "BatchID",
          "type": "address"
        },
        {
          "name": "Shipper",
          "type": "address"
        },
        {
          "name": "Receiver",
          "type": "address"
        }
      ],
      "name": "transferMadicineWtoD",
      "outputs": [],
      "payable": false,
      "stateMutability": "nonpayable",
      "type": "function"
    },
    {
      "constant": true,
      "inputs": [],
      "name": "getBatchesCountWD",
      "outputs": [
        {
          "name": "count",
          "type": "uint256"
        }
      ],
      "payable": false,
      "stateMutability": "view",
      "type": "function"
    },
    {
      "constant": true,
      "inputs": [
        {
          "name": "index",
          "type": "uint256"
        }
      ],
      "name": "getBatchIdByIndexWD",
      "outputs": [
        {
          "name": "packageID",
          "type": "address"
        }
      ],
      "payable": false,
      "stateMutability": "view",
      "type": "function"
    },
    {
      "constant": true,
      "inputs": [
        {
          "name": "BatchID",
          "type": "address"
        }
      ],
      "name": "getSubContractWD",
      "outputs": [
        {
          "name": "SubContractWD",
          "type": "address"
        }
      ],
      "payable": false,
      "stateMutability": "view",
      "type": "function"
    },
    {
      "constant": false,
      "inputs": [
        {
          "name": "BatchID",
          "type": "address"
        },
        {
          "name": "Shipper",
          "type": "address"
        },
        {
          "name": "Receiver",
          "type": "address"
        }
      ],
      "name": "transferMadicineDtoP",
      "outputs": [],
      "payable": false,
      "stateMutability": "nonpayable",
      "type": "function"
    },
    {
      "constant": true,
      "inputs": [],
      "name": "getBatchesCountDP",
      "outputs": [
        {
          "name": "count",
          "type": "uint256"
        }
      ],
      "payable": false,
      "stateMutability": "view",
      "type": "function"
    },
    {
      "constant": true,
      "inputs": [
        {
          "name": "index",
          "type": "uint256"
        }
      ],
      "name": "getBatchIdByIndexDP",
      "outputs": [
        {
          "name": "packageID",
          "type": "address"
        }
      ],
      "payable": false,
      "stateMutability": "view",
      "type": "function"
    },
    {
      "constant": true,
      "inputs": [
        {
          "name": "BatchID",
          "type": "address"
        }
      ],
      "name": "getSubContractDP",
      "outputs": [
        {
          "name": "SubContractDP",
          "type": "address"
        }
      ],
      "payable": false,
      "stateMutability": "view",
      "type": "function"
    },
    {
      "constant": false,
      "inputs": [
        {
          "name": "batchid",
          "type": "address"
        },
        {
          "name": "cid",
          "type": "address"
        }
      ],
      "name": "madicineRecievedAtPharma",
      "outputs": [],
      "payable": false,
      "stateMutability": "nonpayable",
      "type": "function"
    },
    {
      "constant": false,
      "inputs": [
        {
          "name": "BatchID",
          "type": "address"
        },
        {
          "name": "Status",
          "type": "uint256"
        }
      ],
      "name": "updateSaleStatus",
      "outputs": [],
      "payable": false,
      "stateMutability": "nonpayable",
      "type": "function"
    },
    {
      "constant": true,
      "inputs": [
        {
          "name": "BatchID",
          "type": "address"
        }
      ],
      "name": "salesInfo",
      "outputs": [
        {
          "name": "Status",
          "type": "uint256"
        }
      ],
      "payable": false,
      "stateMutability": "view",
      "type": "function"
    },
    {
      "constant": true,
      "inputs": [],
      "name": "getBatchesCountP",
      "outputs": [
        {
          "name": "count",
          "type": "uint256"
        }
      ],
      "payable": false,
      "stateMutability": "view",
      "type": "function"
    },
    {
      "constant": true,
      "inputs": [
        {
          "name": "index",
          "type": "uint256"
        }
      ],
      "name": "getBatchIdByIndexP",
      "outputs": [
        {
          "name": "BatchID",
          "type": "address"
        }
      ],
      "payable": false,
      "stateMutability": "view",
      "type": "function"
    }
  ],
  "bytecode": "0x608060405234801561001057600080fd5b5060008054600160a060020a031916331790556149dc806100326000396000f3fe608060405260043610620001a35760e060020a60003504630bcc75688114620001a85780630cd48d8114620001f2578063108329f814620002335780632246e4d414620002ad5780632becfd0414620002ec578063347590161462000316578063373d5c18146200034d5780633d66f86d146200038a5780635e33cea414620003a25780636386c1c714620003d057806373f08eb3146200040757806380e52e3f146200044e578063884b9c521462000485578063923f645a146200049d5780639856f6b314620004e6578063986c9139146200053f5780639af035a3146200056d5780639f696b35146200059b5780639fb3a90314620005b3578063a4a1e26314620005cb578063b13c499f14620005e3578063b4a99a4e14620005fb578063b6c022f51462000613578063bb8ee1c5146200064a578063bc8c5b1c1462000681578063d40da96714620006b8578063d60881db146200070f578063e581762e1462000760578063e5bff92a1462000778578063e95690aa14620007a6578063eae3c20714620007ef578063f05bcd4e146200082c578063f9723eb6146200085a575b600080fd5b348015620001b557600080fd5b50620001d660048036036020811015620001ce57600080fd5b5035620008a3565b60408051600160a060020a039092168252519081900360200190f35b348015620001ff57600080fd5b5062000231600480360360408110156200021857600080fd5b50600160a060020a038135811691602001351662000961565b005b3480156200024057600080fd5b5062000261600480360360208110156200025957600080fd5b503562000b05565b6040518085815260200184815260200183600160a060020a0316600160a060020a031681526020018260078111156200029657fe5b60ff16815260200194505050505060405180910390f35b348015620002ba57600080fd5b506200023160048036036040811015620002d357600080fd5b50600160a060020a038135811691602001351662000b49565b348015620002f957600080fd5b506200030462000e71565b60408051918252519081900360200190f35b3480156200032357600080fd5b50620001d6600480360360208110156200033c57600080fd5b5035600160a060020a031662000f2e565b3480156200035a57600080fd5b5062000231600480360360408110156200037357600080fd5b50600160a060020a03813516906020013562000f4c565b3480156200039757600080fd5b50620003046200112e565b348015620003af57600080fd5b50620001d660048036036020811015620003c857600080fd5b5035620011eb565b348015620003dd57600080fd5b506200026160048036036020811015620003f657600080fd5b5035600160a060020a0316620012b0565b3480156200041457600080fd5b5062000231600480360360608110156200042d57600080fd5b50600160a060020a03813581169160208101359160409091013516620012ec565b3480156200045b57600080fd5b5062000231600480360360208110156200047457600080fd5b5035600160a060020a0316620016e6565b3480156200049257600080fd5b5062000304620018ba565b348015620004aa57600080fd5b506200023160048036036080811015620004c357600080fd5b50600160a060020a03813516906020810135906040810135906060013562001977565b348015620004f357600080fd5b5062000231600480360360c08110156200050c57600080fd5b50803590602081013590604081013590600160a060020a03606082013581169160808101359091169060a0013562001ba3565b3480156200054c57600080fd5b50620001d6600480360360208110156200056557600080fd5b503562001d77565b3480156200057a57600080fd5b50620001d6600480360360208110156200059357600080fd5b503562001e3c565b348015620005a857600080fd5b506200030462001f01565b348015620005c057600080fd5b506200030462001fbe565b348015620005d857600080fd5b506200030462002059565b348015620005f057600080fd5b50620003046200205f565b3480156200060857600080fd5b50620001d66200211c565b3480156200062057600080fd5b50620001d6600480360360208110156200063957600080fd5b5035600160a060020a03166200212b565b3480156200065757600080fd5b5062000304600480360360208110156200067057600080fd5b5035600160a060020a031662002149565b3480156200068e57600080fd5b506200023160048036036020811015620006a757600080fd5b5035600160a060020a031662002177565b348015620006c557600080fd5b5062000231600480360360c0811015620006de57600080fd5b50803590602081013590604081013590606081013590600160a060020a03608082013581169160a0013516620022b6565b3480156200071c57600080fd5b506200073d600480360360208110156200073557600080fd5b503562002453565b60408051600160a060020a03909316835260208301919091528051918290030190f35b3480156200076d57600080fd5b506200030462002561565b3480156200078557600080fd5b50620001d6600480360360208110156200079e57600080fd5b503562002644565b348015620007b357600080fd5b506200023160048036036060811015620007cc57600080fd5b50600160a060020a0381358116916020810135821691604090910135166200272f565b348015620007fc57600080fd5b5062000231600480360360408110156200081557600080fd5b50600160a060020a0381351690602001356200293f565b3480156200083957600080fd5b50620001d6600480360360208110156200085257600080fd5b503562002b7f565b3480156200086757600080fd5b5062000231600480360360608110156200088057600080fd5b50600160a060020a03813581169160208101358216916040909101351662002c44565b600060033360009081526001602052604090206002015460a060020a900460ff166007811115620008d057fe5b146200092a576040805160e560020a62461bcd028152602060048201526028602482015260008051602062004971833981519152604482015260008051602062004991833981519152606482015290519081900360840190fd5b3360009081526007602052604090208054839081106200094657fe5b600091825260209091200154600160a060020a031692915050565b60063360009081526001602052604090206002015460a060020a900460ff1660078111156200098c57fe5b1462000a08576040805160e560020a62461bcd02815260206004820152602360248201527f4f6e6c7920506861726d612043616e2063616c6c20746869732066756e63746960448201527f6f6e2e0000000000000000000000000000000000000000000000000000000000606482015290519081900360840190fd5b604080517f32a60e00000000000000000000000000000000000000000000000000000000008152600160a060020a0384811660048301523360248301529151918316916332a60e009160448082019260009290919082900301818387803b15801562000a7357600080fd5b505af115801562000a88573d6000803e3d6000fd5b5050336000908152600f60209081526040822080546001808201835591845291909220018054600160a060020a031916600160a060020a038716179055915062000acf9050565b600160a060020a0383166000908152601060205260409020805460ff1916600183600481111562000afc57fe5b02179055505050565b60008060008062000b3a60028681548110151562000b1f57fe5b600091825260209091200154600160a060020a0316620012b0565b93509350935093509193509193565b60043360009081526001602052604090206002015460a060020a900460ff16600781111562000b7457fe5b148062000ba9575060053360009081526001602052604090206002015460a060020a900460ff16600781111562000ba757fe5b145b151562000c26576040805160e560020a62461bcd02815260206004820152603660248201527f4f6e6c792057686f6c6573616c657220616e642044697374726962757465722060448201527f63616e2063616c6c20746869732066756e6374696f6e00000000000000000000606482015290519081900360840190fd5b604080517f52b999680000000000000000000000000000000000000000000000000000000081523360048201529051600091600160a060020a038516916352b999689160248082019260209290919082900301818787803b15801562000c8b57600080fd5b505af115801562000ca0573d6000803e3d6000fd5b505050506040513d602081101562000cb757600080fd5b50519050600181141562000d0357336000908152600960209081526040822080546001810182559083529120018054600160a060020a031916600160a060020a03851617905562000e6c565b806002141562000e6c5733600090815260096020908152604080832080546001810182559084529183209091018054600160a060020a031916600160a060020a03871690811790915581517f01a9a23e000000000000000000000000000000000000000000000000000000008152915190916301a9a23e916004808301926060929190829003018186803b15801562000d9b57600080fd5b505afa15801562000db0573d6000803e3d6000fd5b505050506040513d601f19601f82011682018060405250606081101562000dd657600080fd5b5051600160a060020a03161462000e6c57604080517ff4c07229000000000000000000000000000000000000000000000000000000008152600160a060020a03858116600483015233602483015291519184169163f4c072299160448082019260009290919082900301818387803b15801562000e5257600080fd5b505af115801562000e67573d6000803e3d6000fd5b505050505b505050565b600060013360009081526001602052604090206002015460a060020a900460ff16600781111562000e9e57fe5b1462000f1a576040805160e560020a62461bcd02815260206004820152602560248201527f4f6e6c7920537570706c6965722043616e2063616c6c20746869732066756e6360448201527f74696f6e20000000000000000000000000000000000000000000000000000000606482015290519081900360840190fd5b503360009081526003602052604090205490565b600160a060020a039081166000908152600b60205260409020541690565b600054600160a060020a0316331462000fd5576040805160e560020a62461bcd02815260206004820152602260248201527f4f6e6c79206f776e65722063616e2063616c6c20746869732066756e6374696f60448201527f6e2e000000000000000000000000000000000000000000000000000000000000606482015290519081900360840190fd5b6000600160a060020a03831660009081526001602052604090206002015460a060020a900460ff1660078111156200100957fe5b141562001060576040805160e560020a62461bcd02815260206004820152601360248201527f55736572206e6f74207265676973746572656400000000000000000000000000604482015290519081900360640190fd5b8060078111156200106d57fe5b600160a060020a0383166000908152600160205260409020600201805474ff0000000000000000000000000000000000000000191660a060020a836007811115620010b457fe5b0217905550600160a060020a038216600081815260016020526040902080546002909101547f4c8b3f61ed94356876db0fec52d6a7c6aeaf772c4e0ca8f6da74331cc0f687cc919060a060020a900460ff1660078111156200111257fe5b6040805192835260208301919091528051918290030190a25050565b600060033360009081526001602052604090206002015460a060020a900460ff1660078111156200115b57fe5b14620011d7576040805160e560020a62461bcd02815260206004820152602960248201527f4f6e6c79204d616e7566616374757265722043616e2063616c6c20746869732060448201527f66756e6374696f6e2e0000000000000000000000000000000000000000000000606482015290519081900360840190fd5b503360009081526008602052604090205490565b600060013360009081526001602052604090206002015460a060020a900460ff1660078111156200121857fe5b1462001294576040805160e560020a62461bcd02815260206004820152602560248201527f4f6e6c7920537570706c6965722043616e2063616c6c20746869732066756e6360448201527f74696f6e20000000000000000000000000000000000000000000000000000000606482015290519081900360840190fd5b3360009081526003602052604090208054839081106200094657fe5b600160a060020a0390811660009081526001602081905260409091208054918101546002909101549193909282169160a060020a900460ff1690565b60023360009081526001602052604090206002015460a060020a900460ff1660078111156200131757fe5b1462001393576040805160e560020a62461bcd02815260206004820152602760248201527f4f6e6c79205472616e73706f727465722063616e2063616c6c2074686973206660448201527f756e6374696f6e00000000000000000000000000000000000000000000000000606482015290519081900360840190fd5b60008211620013ec576040805160e560020a62461bcd02815260206004820152601f60248201527f5472616e73706f727465722054797065206d75737420626520646566696e6500604482015290519081900360640190fd5b8160011415620014f557604080517f638e9a3d0000000000000000000000000000000000000000000000000000000081523360048201529051600160a060020a0385169163638e9a3d91602480830192600092919082900301818387803b1580156200145757600080fd5b505af11580156200146c573d6000803e3d6000fd5b5050336000818152600460209081526040808320805460018181018355918552838520018054600160a060020a038a8116600160a060020a0319928316179092558686526006855283862080548085018255908752858720018054928d16929091169190911790559383526005825282208054938401815582529020018490555062000e6c9050565b81600214156200156057604080517f638e9a3d0000000000000000000000000000000000000000000000000000000081523360048201529051600160a060020a0385169163638e9a3d91602480830192600092919082900301818387803b1580156200145757600080fd5b8160031415620015d557604080517f443c28d8000000000000000000000000000000000000000000000000000000008152600160a060020a03858116600483015233602483015291519183169163443c28d89160448082019260009290919082900301818387803b1580156200145757600080fd5b816004141562000e6c57604080517fd39ff0e7000000000000000000000000000000000000000000000000000000008152600160a060020a03858116600483015233602483015291519183169163d39ff0e79160448082019260009290919082900301818387803b1580156200164a57600080fd5b505af11580156200165f573d6000803e3d6000fd5b5050336000818152600460209081526040808320805460018181018355918552838520018054600160a060020a038a8116600160a060020a0319928316179092558686526006855283862080548085018255908752858720018054928d16929091169190911790559383526005825282208054938401815582529020018490555050505050565b600054600160a060020a031633146200176f576040805160e560020a62461bcd02815260206004820152602260248201527f4f6e6c79206f776e65722063616e2063616c6c20746869732066756e6374696f60448201527f6e2e000000000000000000000000000000000000000000000000000000000000606482015290519081900360840190fd5b6000600160a060020a03821660009081526001602052604090206002015460a060020a900460ff166007811115620017a357fe5b1415620017fa576040805160e560020a62461bcd02815260206004820152601360248201527f55736572206e6f74207265676973746572656400000000000000000000000000604482015290519081900360640190fd5b600160a060020a038116600081815260016020526040902080546002909101547fb5f04dfc1ccfefb366c4dc7a23670362462e0a415afb89d8cba1fb657e264c96919060a060020a900460ff1660078111156200185357fe5b6040805192835260208301919091528051918290030190a2600160a060020a03166000908152600160205260409020600201805474ff0000000000000000000000000000000000000000191674070000000000000000000000000000000000000000179055565b600060053360009081526001602052604090206002015460a060020a900460ff166007811115620018e757fe5b1462001963576040805160e560020a62461bcd02815260206004820152602860248201527f4f6e6c792044697374726962757465722043616e2063616c6c2074686973206660448201527f756e6374696f6e2e000000000000000000000000000000000000000000000000606482015290519081900360840190fd5b50336000908152600d602052604090205490565b600054600160a060020a0316331462001a00576040805160e560020a62461bcd02815260206004820152602260248201527f4f6e6c79206f776e65722063616e2063616c6c20746869732066756e6374696f60448201527f6e2e000000000000000000000000000000000000000000000000000000000000606482015290519081900360840190fd5b6000600160a060020a03851660009081526001602052604090206002015460a060020a900460ff16600781111562001a3457fe5b1462001a8a576040805160e560020a62461bcd02815260206004820152601760248201527f5573657220416c72656164792072656769737465726564000000000000000000604482015290519081900360640190fd5b600160a060020a03841660008181526001602081905260409091208581559081018490556002018054600160a060020a031916909117905580600781111562001acf57fe5b600160a060020a0385166000908152600160205260409020600201805474ff0000000000000000000000000000000000000000191660a060020a83600781111562001b1657fe5b0217905550600280546001810182556000919091527f405787fa12a823e0f2b7631cc41b3ba8828b3321ca811111fa75cd3aa3bb5ace018054600160a060020a038616600160a060020a031990911681179091556040805185815290517f33a7170f028b1e4f5ba321064a00ed820856a920c7f9c6636fbcf385427b1b0f9181900360200190a250505050565b60033360009081526001602052604090206002015460a060020a900460ff16600781111562001bce57fe5b1462001c28576040805160e560020a62461bcd028152602060048201526028602482015260008051602062004971833981519152604482015260008051602062004991833981519152606482015290519081900360840190fd5b80151562001c80576040805160e560020a62461bcd02815260206004820152601c60248201527f52656365697665722054797065206d75737420626520646566696e6500000000604482015290519081900360640190fd5b60003387878787878762001c9362002e57565b600160a060020a03978816815260208101969096526040808701959095526060860193909352908516608085015290931660a083015260c082019290925290519081900360e001906000f08015801562001cf1573d6000803e3d6000fd5b503360008181526008602090815260408083208054600181018255908452928290209092018054600160a060020a031916600160a060020a0386811691821790925583518a8316815293519596509088169490927f3279bc96fc4eda86f9fb5456b29ecd9eea4e798e299023b438f7025e6760d5f292908290030190a450505050505050565b600060033360009081526001602052604090206002015460a060020a900460ff16600781111562001da457fe5b1462001e20576040805160e560020a62461bcd02815260206004820152602960248201527f4f6e6c79204d616e7566616374757265722043616e2063616c6c20746869732060448201527f66756e6374696f6e2e0000000000000000000000000000000000000000000000606482015290519081900360840190fd5b3360009081526008602052604090208054839081106200094657fe5b600060043360009081526001602052604090206002015460a060020a900460ff16600781111562001e6957fe5b1462001ee5576040805160e560020a62461bcd02815260206004820152602760248201527f4f6e6c792057686f6c6573616c65722043616e2063616c6c207468697320667560448201527f6e6374696f6e2e00000000000000000000000000000000000000000000000000606482015290519081900360840190fd5b336000908152600a602052604090208054839081106200094657fe5b600060043360009081526001602052604090206002015460a060020a900460ff16600781111562001f2e57fe5b1462001faa576040805160e560020a62461bcd02815260206004820152602760248201527f4f6e6c792057686f6c6573616c65722043616e2063616c6c207468697320667560448201527f6e6374696f6e2e00000000000000000000000000000000000000000000000000606482015290519081900360840190fd5b50336000908152600a602052604090205490565b600060033360009081526001602052604090206002015460a060020a900460ff16600781111562001feb57fe5b1462002045576040805160e560020a62461bcd028152602060048201526028602482015260008051602062004971833981519152604482015260008051602062004991833981519152606482015290519081900360840190fd5b503360009081526007602052604090205490565b60025490565b600060023360009081526001602052604090206002015460a060020a900460ff1660078111156200208c57fe5b1462002108576040805160e560020a62461bcd02815260206004820152602860248201527f4f6e6c79207472616e73706f727465722043616e2063616c6c2074686973206660448201527f756e6374696f6e20000000000000000000000000000000000000000000000000606482015290519081900360840190fd5b503360009081526004602052604090205490565b600054600160a060020a031681565b600160a060020a039081166000908152600e60205260409020541690565b600160a060020a03811660009081526010602052604081205460ff1660048111156200217157fe5b92915050565b60033360009081526001602052604090206002015460a060020a900460ff166007811115620021a257fe5b14620021fc576040805160e560020a62461bcd028152602060048201526028602482015260008051602062004971833981519152604482015260008051602062004991833981519152606482015290519081900360840190fd5b604080517f52b999680000000000000000000000000000000000000000000000000000000081523360048201529051600160a060020a038316916352b9996891602480830192600092919082900301818387803b1580156200225d57600080fd5b505af115801562002272573d6000803e3d6000fd5b5050336000908152600760209081526040822080546001810182559083529120018054600160a060020a031916600160a060020a0394909416939093179092555050565b60013360009081526001602052604090206002015460a060020a900460ff166007811115620022e157fe5b146200235d576040805160e560020a62461bcd02815260206004820152602560248201527f4f6e6c7920537570706c6965722043616e2063616c6c20746869732066756e6360448201527f74696f6e20000000000000000000000000000000000000000000000000000000606482015290519081900360840190fd5b6000338787878787876200237062002e68565b600160a060020a039788168152602081019690965260408087019590955260608601939093526080850191909152841660a084015290921660c082015290519081900360e001906000f080158015620023cd573d6000803e3d6000fd5b503360008181526003602090815260408083208054600181018255908452928290209092018054600160a060020a031916600160a060020a038681169182179092558351898316815293519596509087169490927f9dbe7d9fdd28b9b1c2ffe79a40f7beff124537ed0d7a47555d009e0271fc613392908290030190a450505050505050565b60008060023360009081526001602052604090206002015460a060020a900460ff1660078111156200248157fe5b14620024fd576040805160e560020a62461bcd02815260206004820152602860248201527f4f6e6c79207472616e73706f727465722043616e2063616c6c2074686973206660448201527f756e6374696f6e20000000000000000000000000000000000000000000000000606482015290519081900360840190fd5b3360009081526004602052604090208054849081106200251957fe5b6000918252602080832090910154338352600590915260409091208054600160a060020a0390921691859081106200254d57fe5b906000526020600020015491509150915091565b600060063360009081526001602052604090206002015460a060020a900460ff1660078111156200258e57fe5b1462002630576040805160e560020a62461bcd02815260206004820152604260248201527f4f6e6c792057686f6c6573616c6572206f722063757272656e74206f776e657260448201527f206f66207061636b6167652063616e2063616c6c20746869732066756e63746960648201527f6f6e000000000000000000000000000000000000000000000000000000000000608482015290519081900360a40190fd5b50336000908152600f602052604090205490565b600060063360009081526001602052604090206002015460a060020a900460ff1660078111156200267157fe5b1462002713576040805160e560020a62461bcd02815260206004820152604260248201527f4f6e6c792057686f6c6573616c6572206f722063757272656e74206f776e657260448201527f206f66207061636b6167652063616e2063616c6c20746869732066756e63746960648201527f6f6e000000000000000000000000000000000000000000000000000000000000608482015290519081900360a40190fd5b336000908152600f602052604090208054839081106200094657fe5b60043360009081526001602052604090206002015460a060020a900460ff1660078111156200275a57fe5b148015620027e9575082600160a060020a03166301a9a23e6040518163ffffffff1660e060020a02815260040160606040518083038186803b158015620027a057600080fd5b505afa158015620027b5573d6000803e3d6000fd5b505050506040513d601f19601f820116820180604052506060811015620027db57600080fd5b5051600160a060020a031633145b15156200288c576040805160e560020a62461bcd02815260206004820152604260248201527f4f6e6c792057686f6c6573616c6572206f722063757272656e74206f776e657260448201527f206f66207061636b6167652063616e2063616c6c20746869732066756e63746960648201527f6f6e000000000000000000000000000000000000000000000000000000000000608482015290519081900360a40190fd5b6000833384846200289c62002e79565b600160a060020a039485168152928416602084015290831660408084019190915292166060820152905190819003608001906000f080158015620028e4573d6000803e3d6000fd5b50336000908152600a602090815260408083208054600181018255908452828420018054600160a060020a03958616600160a060020a03199182168117909255989094168352600b9091529020805490951617909355505050565b60063360009081526001602052604090206002015460a060020a900460ff1660078111156200296a57fe5b148015620029fc575081600160a060020a03166301a9a23e6040518163ffffffff1660e060020a02815260040160606040518083038186803b158015620029b057600080fd5b505afa158015620029c5573d6000803e3d6000fd5b505050506040513d601f19601f820116820180604052506060811015620029eb57600080fd5b5060400151600160a060020a031633145b151562002a79576040805160e560020a62461bcd02815260206004820152603e60248201527f4f6e6c7920506861726d61206f722063757272656e74206f776e6572206f662060448201527f7061636b6167652063616e2063616c6c20746869732066756e6374696f6e0000606482015290519081900360840190fd5b6001600160a060020a03831660009081526010602052604090205460ff16600481111562002aa357fe5b1462002af9576040805160e560020a62461bcd02815260206004820152601a60248201527f6d61646963696e65204d75737420626520617420506861726d61000000000000604482015290519081900360640190fd5b80600481111562002b0657fe5b600160a060020a0383166000908152601060205260409020805460ff1916600183600481111562002b3357fe5b021790555060408051600160a060020a038416815260208101839052815133927f7e0150eb126a0bad6138f448f48f826cabdf937aac9ffdcefbba62cae222332e928290030190a25050565b600060053360009081526001602052604090206002015460a060020a900460ff16600781111562002bac57fe5b1462002c28576040805160e560020a62461bcd02815260206004820152602860248201527f4f6e6c792044697374726962757465722043616e2063616c6c2074686973206660448201527f756e6374696f6e2e000000000000000000000000000000000000000000000000606482015290519081900360840190fd5b336000908152600d602052604090208054839081106200094657fe5b60053360009081526001602052604090206002015460a060020a900460ff16600781111562002c6f57fe5b14801562002d01575082600160a060020a03166301a9a23e6040518163ffffffff1660e060020a02815260040160606040518083038186803b15801562002cb557600080fd5b505afa15801562002cca573d6000803e3d6000fd5b505050506040513d601f19601f82011682018060405250606081101562002cf057600080fd5b5060200151600160a060020a031633145b151562002da4576040805160e560020a62461bcd02815260206004820152604360248201527f4f6e6c79204469737472696275746572206f722063757272656e74206f776e6560448201527f72206f66207061636b6167652063616e2063616c6c20746869732066756e637460648201527f696f6e0000000000000000000000000000000000000000000000000000000000608482015290519081900360a40190fd5b60008333848462002db462002e8a565b600160a060020a039485168152928416602084015290831660408084019190915292166060820152905190819003608001906000f08015801562002dfc573d6000803e3d6000fd5b50336000908152600d602090815260408083208054600181018255908452828420018054600160a060020a03958616600160a060020a03199182168117909255989094168352600e9091529020805490951617909355505050565b604051610b868062002e9c83390190565b6040516105d98062003a2283390190565b6040516104bb8062003ffb83390190565b6040516104bb80620044b68339019056fe608060405234801561001057600080fd5b5060405160e080610b86833981018060405260e081101561003057600080fd5b508051602082015160408301516060840151608085015160a086015160c09096015160008054600160a060020a0319908116600160a060020a03808a1691821790935560058054831690911790556001878155600287905560038690556004805490921692851692909217905595969495939492939192918114156100cf5760068054600160a060020a031916600160a060020a0384161790556100f4565b80600214156100f45760078054600160a060020a031916600160a060020a0384161790555b50505050505050610a7c8061010a6000396000f3fe608060405260043610610092577c0100000000000000000000000000000000000000000000000000000000600035046301a9a23e81146100975780631d2aafc8146100e45780634175699d1461013557806352b999681461016a578063638e9a3d146101af578063952565cf146101e2578063a19ffd6014610215578063bd78683514610250578063d2f3fcc71461028b575b600080fd5b3480156100a357600080fd5b506100ac6102a0565b6040518082606080838360005b838110156100d15781810151838201526020016100b9565b5050505090500191505060405180910390f35b3480156100f057600080fd5b506100f96102db565b60408051600160a060020a0396871681526020810195909552848101939093526060840191909152909216608082015290519081900360a00190f35b34801561014157600080fd5b506101686004803603602081101561015857600080fd5b5035600160a060020a03166102fe565b005b34801561017657600080fd5b5061019d6004803603602081101561018d57600080fd5b5035600160a060020a031661038d565b60408051918252519081900360200190f35b3480156101bb57600080fd5b50610168600480360360208110156101d257600080fd5b5035600160a060020a03166105fa565b3480156101ee57600080fd5b506101686004803603602081101561020557600080fd5b5035600160a060020a03166107c7565b34801561022157600080fd5b506101686004803603604081101561023857600080fd5b50600160a060020a0381358116916020013516610859565b34801561025c57600080fd5b506101686004803603604081101561027357600080fd5b50600160a060020a0381358116916020013516610937565b34801561029757600080fd5b5061019d6109f1565b6102a8610a11565b5060408051606081018252600654600160a060020a03908116825260075481166020830152600854169181019190915290565b600554600154600254600354600454600160a060020a0394851694169091929394565b600854600160a060020a03828116911614610363576040805160e560020a62461bcd02815260206004820152601e60248201527f5468697320506861726d61206973206e6f74204173736f6369617465642e0000604482015290519081900360640190fd5b60065b6008805460a060020a60ff02191660a060020a83600681111561038557fe5b021790555050565b600654600090600160a060020a03838116911614806103b95750600754600160a060020a038381169116145b1515610435576040805160e560020a62461bcd02815260206004820152603f60248201527f4f6e6c79204173736f63696174652057686f6c6573616c6572206f722044697360448201527f74727562757465722063616e2063616c6c20746869732066756e6374696f6e00606482015290519081900360840190fd5b60085460019060a060020a900460ff16600681111561045057fe5b10156104a6576040805160e560020a62461bcd02815260206004820152601960248201527f50726f64756374206e6f74207069636b65642075702079657400000000000000604482015290519081900360640190fd5b600654600160a060020a0383811691161480156104da5750600160085460a060020a900460ff1660068111156104d857fe5b145b1561054d576008805460a060020a60ff021916740300000000000000000000000000000000000000001790556006546004546040805160028152600360208201528151600160a060020a0394851694909316923092600080516020610a31833981519152928290030190a45060016105f5565b600754600160a060020a0383811691161480156105815750600260085460a060020a900460ff16600681111561057f57fe5b145b156105f5576008805460a060020a60ff0219167404000000000000000000000000000000000000000017905560075460048054604080516003815260208101939093528051600160a060020a0394851694909216923092600080516020610a31833981519152929181900390910190a45060025b919050565b600454600160a060020a03828116911614610685576040805160e560020a62461bcd02815260206004820152602d60248201527f4f6e6c79204173736f636961746520536869707065722063616e2063616c6c2060448201527f746869732066756e6374696f6e00000000000000000000000000000000000000606482015290519081900360840190fd5b600060085460a060020a900460ff16600681111561069f57fe5b146106f4576040805160e560020a62461bcd02815260206004820152601c60248201527f5061636b616765206d75737420626520617420537570706c6965722e00000000604482015290519081900360640190fd5b600654600160a060020a03161561075e576008805460a060020a60ff02191660a060020a17905560065460045460408051600180825260208201528151600160a060020a0394851694909316923092600080516020610a31833981519152928290030190a46107c4565b6008805460a060020a60ff0219167402000000000000000000000000000000000000000017905560075460045460408051600180825260208201528151600160a060020a0394851694909316923092600080516020610a31833981519152928290030190a45b50565b600754600160a060020a03828116911614610852576040805160e560020a62461bcd02815260206004820152602360248201527f54686973204469737472696275746572206973206e6f74204173736f6369617460448201527f65642e0000000000000000000000000000000000000000000000000000000000606482015290519081900360840190fd5b6004610366565b600754600160a060020a038281169116146108e4576040805160e560020a62461bcd02815260206004820152602360248201527f74686973204469737472696275746572206973206e6f74204173736f6369617460448201527f65642e0000000000000000000000000000000000000000000000000000000000606482015290519081900360840190fd5b6008805473ffffffffffffffffffffffffffffffffffffffff1916600160a060020a03841617905560055b6008805460a060020a60ff02191660a060020a83600681111561092e57fe5b02179055505050565b600654600160a060020a038281169116146109c2576040805160e560020a62461bcd02815260206004820152602260248201527f746869732057686f6c6573616c6572206973206e6f74204173736f636961746560448201527f642e000000000000000000000000000000000000000000000000000000000000606482015290519081900360840190fd5b6007805473ffffffffffffffffffffffffffffffffffffffff1916600160a060020a038416179055600261090f565b60085460009060a060020a900460ff166006811115610a0c57fe5b905090565b606060405190810160405280600390602082028038833950919291505056fe7e89c4b1a4e2b51aae84eb1f90e8a34cb792ece5ac5cb63db4830c891220b28da165627a7a72305820d05b48022d63763e4d2b98ddfbaf7de4eabe3e6e28d6aded10bc7a5e40160b6d0029608060405234801561001057600080fd5b5060405160e0806105d9833981018060405260e081101561003057600080fd5b508051602082015160408301516060840151608085015160a086015160c09096015160008054600160a060020a0319908116600160a060020a0398891690811783556001805430908416179055600297909755600395909555600493909355600591909155600680548416968616969096179095556007805483169490951693909317909355600880549093161760a060020a60ff0219169091556104fe9081906100db90396000f3fe60806040526004361061005b577c010000000000000000000000000000000000000000000000000000000060003504633b205a7d811461006057806352b9996814610087578063638e9a3d146100bc578063d02eee23146100ef575b600080fd5b34801561006c57600080fd5b5061007561014b565b60408051918252519081900360200190f35b34801561009357600080fd5b506100ba600480360360208110156100aa57600080fd5b5035600160a060020a031661017c565b005b3480156100c857600080fd5b506100ba600480360360208110156100df57600080fd5b5035600160a060020a0316610310565b3480156100fb57600080fd5b506101046104a3565b604080519788526020880196909652868601949094526060860192909252600160a060020a03908116608086015290811660a08501521660c0830152519081900360e00190f35b60085460009074010000000000000000000000000000000000000000900460ff16600281111561017757fe5b905090565b600754600160a060020a03828116911614610207576040805160e560020a62461bcd02815260206004820152603260248201527f4f6e6c79204173736f6369617465204d616e7566616374757265722063616e2060448201527f63616c6c20746869732066756e6374696f6e0000000000000000000000000000606482015290519081900360840190fd5b600160085474010000000000000000000000000000000000000000900460ff16600281111561023257fe5b14610287576040805160e560020a62461bcd02815260206004820152601960248201527f50726f64756374206e6f74207069636b65642075702079657400000000000000604482015290519081900360640190fd5b6008805474ff00000000000000000000000000000000000000001916740200000000000000000000000000000000000000001790556007546006546040805160018152600260208201528151600160a060020a03948516949093169230927f7e89c4b1a4e2b51aae84eb1f90e8a34cb792ece5ac5cb63db4830c891220b28d928290030190a450565b600654600160a060020a0382811691161461039b576040805160e560020a62461bcd02815260206004820152602d60248201527f4f6e6c79204173736f636961746520536869707065722063616e2063616c6c2060448201527f746869732066756e6374696f6e00000000000000000000000000000000000000606482015290519081900360840190fd5b600060085474010000000000000000000000000000000000000000900460ff1660028111156103c657fe5b1461041b576040805160e560020a62461bcd02815260206004820152601c60248201527f5061636b616765206d75737420626520617420537570706c6965722e00000000604482015290519081900360640190fd5b6008805474ff000000000000000000000000000000000000000019167401000000000000000000000000000000000000000017905560075460065460408051600180825260208201528151600160a060020a03948516949093169230927f7e89c4b1a4e2b51aae84eb1f90e8a34cb792ece5ac5cb63db4830c891220b28d928290030190a450565b600254600354600454600554600654600754600854600160a060020a039283169291821691169091929394959656fea165627a7a72305820304400dbddfa8a90ea166e2222fec544fe611d355b1578875b101168259a44e20029608060405234801561001057600080fd5b506040516080806104bb8339810180604052608081101561003057600080fd5b5080516020820151604083015160609093015160008054600160a060020a0319908116600160a060020a03948516908117835560018054831696861696909617909555600280548216909517909455600380548516958416959095179094556004805490931691161760a060020a60ff02191690556104069081906100b590396000f3fe608060405260043610610050577c01000000000000000000000000000000000000000000000000000000006000350463443c28d88114610055578063d2f3fcc714610092578063f4c07229146100b9575b600080fd5b34801561006157600080fd5b506100906004803603604081101561007857600080fd5b50600160a060020a03813581169160200135166100f4565b005b34801561009e57600080fd5b506100a7610257565b60408051918252519081900360200190f35b3480156100c557600080fd5b50610090600480360360408110156100dc57600080fd5b50600160a060020a0381358116916020013516610288565b600354600160a060020a0382811691161461019657604080517f08c379a000000000000000000000000000000000000000000000000000000000815260206004820152602f60248201527f4f6e6c79204173736f63696174656420736869707065722063616e2063616c6c60448201527f20746869732066756e6374696f6e2e0000000000000000000000000000000000606482015290519081900360840190fd5b6004805474ff000000000000000000000000000000000000000019167401000000000000000000000000000000000000000017808255600254604080517fbd786835000000000000000000000000000000000000000000000000000000008152600160a060020a03938416948101949094529082166024840152519084169163bd78683591604480830192600092919082900301818387803b15801561023b57600080fd5b505af115801561024f573d6000803e3d6000fd5b505050505050565b60045460009074010000000000000000000000000000000000000000900460ff16600281111561028357fe5b905090565b600454600160a060020a0382811691161461032a57604080517f08c379a000000000000000000000000000000000000000000000000000000000815260206004820152603060248201527f4f6e6c79204173736f6369617465642072656365697665722063616e2063616c60448201527f6c20746869732066756e6374696f6e2e00000000000000000000000000000000606482015290519081900360840190fd5b600480546002919074ff000000000000000000000000000000000000000019167401000000000000000000000000000000000000000083021790555081600160a060020a031663952565cf826040518263ffffffff167c01000000000000000000000000000000000000000000000000000000000281526004018082600160a060020a0316600160a060020a03168152602001915050600060405180830381600087803b15801561023b57600080fdfea165627a7a7230582019ebae44f72b50645838a293ed1f78442978c6ddf83e9fc17433f06c6ccdd8c40029608060405234801561001057600080fd5b506040516080806104bb8339810180604052608081101561003057600080fd5b5080516020820151604083015160609093015160008054600160a060020a0319908116600160a060020a03948516908117835560018054831696861696909617909555600280548216909517909455600380548516958416959095179094556004805490931691161760a060020a60ff02191690556104069081906100b590396000f3fe608060405260043610610050577c0100000000000000000000000000000000000000000000000000000000600035046332a60e008114610055578063d2f3fcc714610092578063d39ff0e7146100b9575b600080fd5b34801561006157600080fd5b506100906004803603604081101561007857600080fd5b50600160a060020a03813581169160200135166100f4565b005b34801561009e57600080fd5b506100a7610262565b60408051918252519081900360200190f35b3480156100c557600080fd5b50610090600480360360408110156100dc57600080fd5b50600160a060020a0381358116916020013516610293565b600454600160a060020a0382811691161461019657604080517f08c379a000000000000000000000000000000000000000000000000000000000815260206004820152603060248201527f4f6e6c79204173736f6369617465642072656365697665722063616e2063616c60448201527f6c20746869732066756e6374696f6e2e00000000000000000000000000000000606482015290519081900360840190fd5b600480546002919074ff000000000000000000000000000000000000000019167401000000000000000000000000000000000000000083021790555081600160a060020a0316634175699d826040518263ffffffff167c01000000000000000000000000000000000000000000000000000000000281526004018082600160a060020a0316600160a060020a03168152602001915050600060405180830381600087803b15801561024657600080fd5b505af115801561025a573d6000803e3d6000fd5b505050505050565b60045460009074010000000000000000000000000000000000000000900460ff16600281111561028e57fe5b905090565b600354600160a060020a0382811691161461033557604080517f08c379a000000000000000000000000000000000000000000000000000000000815260206004820152602f60248201527f4f6e6c79204173736f63696174656420736869707065722063616e2063616c6c60448201527f20746869732066756e6374696f6e2e0000000000000000000000000000000000606482015290519081900360840190fd5b6004805474ff000000000000000000000000000000000000000019167401000000000000000000000000000000000000000017808255600254604080517fa19ffd60000000000000000000000000000000000000000000000000000000008152600160a060020a03938416948101949094529082166024840152519084169163a19ffd6091604480830192600092919082900301818387803b15801561024657600080fdfea165627a7a72305820731e3698ead0ee2b6290692b2d8663c5684d4eb8910a26afd8b0f8f44d6efd0000294f6e6c79206d616e7566616374757265722063616e2063616c6c20746869732066756e6374696f6e000000000000000000000000000000000000000000000000a165627a7a72305820b0ce7a2e2118e1f25ae6d49584479718d9a64f8935bf13fdac2c3cf6f2e91cfe0029",
  "source": "pragma solidity >=0.4.25 <0.6.0;\n\nimport './RawMatrials.sol';\nimport './Madicine.sol';\nimport './MadicineW_D.sol';\nimport './MadicineD_P.sol';\n\n\ncontract SupplyChain {\n\n    /// @notice\n    address public Owner;\n\n    /// @notice\n    /// @dev Initiate SupplyChain Contract\n    constructor () public {\n        Owner = msg.sender;\n    }\n/********************************************** Owner Section *********************************************/\n    /// @dev Validate Owner\n    modifier onlyOwner() {\n        require(\n            msg.sender == Owner,\n            \"Only owner can call this function.\"\n        );\n        _;\n    }\n\n    enum roles {\n        norole,\n        supplier,\n        transporter,\n        manufacturer,\n        wholesaler,\n        distributer,\n        pharma,\n        revoke\n    }\n\n    event UserRegister(address indexed EthAddress, bytes32 Name);\n    event UserRoleRevoked(address indexed EthAddress, bytes32 Name, uint Role);\n    event UserRoleRessigne(address indexed EthAddress, bytes32 Name, uint Role);\n\n    /// @notice\n    /// @dev Register New user by Owner\n    /// @param EthAddress Ethereum Network Address of User\n    /// @param Name User name\n    /// @param Location User Location\n    /// @param Role User Role\n    function registerUser(\n        address EthAddress,\n        bytes32 Name,\n        bytes32 Location,\n        uint Role\n        ) public\n        onlyOwner\n        {\n        require(UsersDetails[EthAddress].role == roles.norole, \"User Already registered\");\n        UsersDetails[EthAddress].name = Name;\n        UsersDetails[EthAddress].location = Location;\n        UsersDetails[EthAddress].ethAddress = EthAddress;\n        UsersDetails[EthAddress].role = roles(Role);\n        users.push(EthAddress);\n        emit UserRegister(EthAddress, Name);\n    }\n    /// @notice\n    /// @dev Revoke users role\n    /// @param userAddress User Ethereum Network Address\n    function revokeRole(address userAddress) public onlyOwner {\n        require(UsersDetails[userAddress].role != roles.norole, \"User not registered\");\n        emit UserRoleRevoked(userAddress, UsersDetails[userAddress].name,uint(UsersDetails[userAddress].role));\n        UsersDetails[userAddress].role = roles(7);\n    }\n    /// @notice\n    /// @dev Reassigne new role to User\n    /// @param userAddress User Ethereum Network Address\n    /// @param Role Role to assigne\n    function reassigneRole(address userAddress, uint Role) public onlyOwner {\n        require(UsersDetails[userAddress].role != roles.norole, \"User not registered\");\n        UsersDetails[userAddress].role = roles(Role);\n        emit UserRoleRessigne(userAddress, UsersDetails[userAddress].name,uint(UsersDetails[userAddress].role));\n    }\n\n/********************************************** User Section **********************************************/\n    struct UserInfo {\n        bytes32 name;\n        bytes32 location;\n        address ethAddress;\n        roles role;\n    }\n\n    /// @notice\n    mapping(address => UserInfo) UsersDetails;\n    /// @notice\n    address[] users;\n\n    /// @notice\n    /// @dev Get User Information/ Profile\n    /// @param User User Ethereum Network Address\n    /// @return User Details\n    function getUserInfo(address User) public view returns(\n        bytes32 name,\n        bytes32 location,\n        address ethAddress,\n        roles role\n        ) {\n        return (\n            UsersDetails[User].name,\n            UsersDetails[User].location,\n            UsersDetails[User].ethAddress,\n            UsersDetails[User].role);\n    }\n\n    /// @notice\n    /// @dev Get Number of registered Users\n    /// @return Number of registered Users\n    function getUsersCount() public view returns(uint count){\n        return users.length;\n    }\n\n    /// @notice\n    /// @dev Get User by Index value of stored data\n    /// @param index Indexed Number\n    /// @return User Details\n    function getUserbyIndex(uint index) public view returns(\n        bytes32 name,\n        bytes32 location,\n        address ethAddress,\n        roles role\n        ) {\n        return getUserInfo(users[index]);\n    }\n/********************************************** Supplier Section ******************************************/\n    /// @notice\n    mapping(address => address[]) supplierRawProductInfo;\n    event RawSupplyInit(\n        address indexed ProductID,\n        address indexed Supplier,\n        address Shipper,\n        address indexed Receiver\n    );\n\n    /// @notice\n    /// @dev Create new raw package by Supplier\n    /// @param Des Transporter Ethereum Network Address\n    /// @param Rcvr Manufacturer Ethereum Network Address\n    function createRawPackage(\n        bytes32 Des,\n        bytes32 FN,\n        bytes32 Loc,\n        uint Quant,\n        address Shpr,\n        address Rcvr\n        ) public {\n        require(\n            UsersDetails[msg.sender].role == roles.supplier,\n            \"Only Supplier Can call this function \"\n        );\n        RawMatrials rawData = new RawMatrials(\n            msg.sender,\n            Des,\n            FN,\n            Loc,\n            Quant,\n            Shpr,\n            Rcvr\n            );\n        supplierRawProductInfo[msg.sender].push(address(rawData));\n        emit RawSupplyInit(address(rawData), msg.sender, Shpr, Rcvr);\n    }\n\n    /// @notice\n    /// @dev  Get Count of created package by supplier(caller)\n    /// @return Number of packages\n    function getPackagesCountS() public view returns (uint count){\n        require(\n            UsersDetails[msg.sender].role == roles.supplier,\n            \"Only Supplier Can call this function \"\n        );\n        return supplierRawProductInfo[msg.sender].length;\n    }\n\n    /// @notice\n    /// @dev Get PackageID by Indexed value of stored data\n    /// @param index Indexed Value\n    /// @return PackageID\n    function getPackageIdByIndexS(uint index) public view returns(address packageID) {\n        require(\n            UsersDetails[msg.sender].role == roles.supplier,\n            \"Only Supplier Can call this function \"\n        );\n        return supplierRawProductInfo[msg.sender][index];\n    }\n\n/********************************************** Transporter Section ******************************************/\n\n    /// @notice\n    /// @dev Load Consingment fot transport one location to another.\n    /// @param pid PackageID or MadicineID\n    /// @param transportertype Transporter Type on the basic of tx between Roles\n    /// @param cid Sub Contract ID for Consingment transaction\n    /*struct transinfo{\n        address cid1;\n        uint transportertype1;\n        address pid1;  \n    } */ \n        mapping(address => address[]) transbatchidcid;\n        mapping(address => uint[]) transbatchidtxtype;\n        mapping(address => address[]) transbatchidpid;\n        \n    function loadConsingment ( \n        address pid,\n        uint transportertype,\n        address cid\n        ) public {\n        require(\n            UsersDetails[msg.sender].role == roles.transporter,\n            \"Only Transporter can call this function\"\n        );\n        require(\n            transportertype > 0,\n            \"Transporter Type must be define\"\n        );\n\n        if(transportertype == 1) {  // Supplier to Manufacturer\n             RawMatrials(pid).pickPackage(msg.sender);\n            transbatchidcid[msg.sender].push(address(cid));\n            transbatchidpid[msg.sender].push(address(pid));\n            transbatchidtxtype[msg.sender].push(uint(transportertype));\n          \n           \n        } else if(transportertype == 2) {   // Manufacturer to Wholesaler OR Manufacturer to Distributer\n            Madicine(pid).pickPackage(msg.sender);\n            transbatchidcid[msg.sender].push(address(cid));\n            transbatchidpid[msg.sender].push(address(pid));\n            transbatchidtxtype[msg.sender].push(uint(transportertype));\n\n        } else if(transportertype == 3) {   // Wholesaler to Distributer\n            MadicineW_D(cid).pickWD(pid,msg.sender);\n            transbatchidcid[msg.sender].push(address(cid));\n            transbatchidpid[msg.sender].push(address(pid));\n            transbatchidtxtype[msg.sender].push(uint(transportertype));\n        } else if(transportertype == 4) {   // Distrubuter to Pharma\n            MadicineD_P(cid).pickDP(pid,msg.sender);\n            transbatchidcid[msg.sender].push(address(cid));\n            transbatchidpid[msg.sender].push(address(pid));\n            transbatchidtxtype[msg.sender].push(uint(transportertype));\n        }\n    }\n\n    function transportCount() public view returns (uint count){\n        require(\n            UsersDetails[msg.sender].role == roles.transporter,\n            \"Only transporter Can call this function \"\n        );\n        return transbatchidcid[msg.sender].length;\n    }\n   /* function gettransporterinfo(address User) public view returns(\n        address cid1,\n        uint transportertype1,\n        address pid1\n    ){\n        return(\n            transbatchid[User].cid1,\n            transbatchid[User].transportertype1,\n            transbatchid[User].pid1\n        );\n    }*/\n    \n    function getTransportBatchIdByIndex(uint index) public view returns(address cid,uint transportertype) {\n        require(\n            UsersDetails[msg.sender].role == roles.transporter,\n            \"Only transporter Can call this function \"\n        );\n        return (transbatchidcid[msg.sender][index],transbatchidtxtype[msg.sender][index]);\n    }\n\n/********************************************** Manufacturer Section ******************************************/\n    /// @notice\n    mapping(address => address[]) RawPackagesAtManufacturer;\n\n    /// @notice\n    /// @dev Update Package / Madicine batch recieved status by ethier Manufacturer or Distributer\n    /// @param pid  PackageID or MadicineID\n    function  rawPackageReceived(\n        address pid\n    ) public {\n        require(\n            UsersDetails[msg.sender].role == roles.manufacturer,\n            \"Only manufacturer can call this function\"\n        );\n\n        RawMatrials(pid).receivedPackage(msg.sender);\n        RawPackagesAtManufacturer[msg.sender].push(pid);\n    }\n\n    /// @notice\n    /// @dev Get Package Count at Manufacturer\n    /// @return Number of Packages at Manufacturer\n    function getPackagesCountM() public view returns(uint count){\n        require(\n            UsersDetails[msg.sender].role == roles.manufacturer,\n            \"Only manufacturer can call this function\"\n        );\n        return RawPackagesAtManufacturer[msg.sender].length;\n    }\n\n    /// @notice\n    /// @dev Get PackageID by Indexed value of stored data\n    /// @param index Indexed Value\n    /// @return PackageID\n    function getPackageIDByIndexM(uint index) public view returns(address BatchID){\n        require(\n            UsersDetails[msg.sender].role == roles.manufacturer,\n            \"Only manufacturer can call this function\"\n        );\n        return RawPackagesAtManufacturer[msg.sender][index];\n    }\n\n    /// @notice\n    mapping(address => address[]) ManufactureredMadicineBatches;\n    event MadicineNewBatch(\n        address indexed BatchId,\n        address indexed Manufacturer,\n        address shipper,\n        address indexed Receiver\n    );\n\n    /// @notice\n    /// @dev Create Madicine Batch\n    /// @param Des Description of madicine batch\n    /// @param RM RawMatrials Information\n    /// @param Quant Number of Units\n    /// @param Shpr Transporter Ethereum Network Address\n    /// @param Rcvr Receiver Ethereum Network Address\n    /// @param RcvrType Receiver Type Ethier Wholesaler(1) or Distributer(2)\n    function manufacturMadicine(\n        bytes32 Des,\n        bytes32 RM,\n        uint Quant,\n        address Shpr,\n        address Rcvr,\n        uint RcvrType\n    ) public {\n        require(\n            UsersDetails[msg.sender].role == roles.manufacturer,\n            \"Only manufacturer can call this function\"\n        );\n        require(\n            RcvrType != 0,\n            \"Receiver Type must be define\"\n        );\n\n        Madicine m = new Madicine(\n            msg.sender,\n            Des,\n            RM,\n            Quant,\n            Shpr,\n            Rcvr,\n            RcvrType\n        );\n\n        ManufactureredMadicineBatches[msg.sender].push(address(m));\n        emit MadicineNewBatch(address(m), msg.sender, Shpr, Rcvr);\n    }\n\n    /// @notice\n    /// @dev Get Madicine Batch Count\n    /// @return Number of Batches\n    function getBatchesCountM() public view returns (uint count){\n        require(\n            UsersDetails[msg.sender].role == roles.manufacturer,\n            \"Only Manufacturer Can call this function.\"\n        );\n        return ManufactureredMadicineBatches[msg.sender].length;\n    }\n\n    /// @notice\n    /// @dev Get Madicine BatchID by indexed value of stored data\n    /// @param index Indexed Number\n    /// @return Madicine BatchID\n    function getBatchIdByIndexM(uint index) public view returns(address packageID) {\n        require(\n            UsersDetails[msg.sender].role == roles.manufacturer,\n            \"Only Manufacturer Can call this function.\"\n        );\n        return ManufactureredMadicineBatches[msg.sender][index];\n    }\n\n\n/********************************************** Wholesaler Section ******************************************/\n    /// @notice\n    mapping(address => address[]) MadicineBatchesAtWholesaler;\n\n    /// @notice\n    /// @dev Madicine Batch Received\n    /// @param batchid Madicine BatchID\n    /// @param cid Sub Contract ID for Madicine (if transaction Wholesaler to Distributer)\n    function madicineReceived(\n        address batchid,\n        address cid\n    ) public {\n        require(\n            UsersDetails[msg.sender].role == roles.wholesaler || UsersDetails[msg.sender].role == roles.distributer,\n            \"Only Wholesaler and Distributer can call this function\"\n        );\n\n        uint rtype = Madicine(batchid).receivedPackage(msg.sender);\n        if(rtype == 1){\n            MadicineBatchesAtWholesaler[msg.sender].push(batchid);\n        }else if( rtype == 2){\n            MadicineBatchesAtWholesaler[msg.sender].push(batchid);\n            if(Madicine(batchid).getWDP()[0] != address(0)){\n                MadicineW_D(cid).recieveWD(batchid,msg.sender);\n            }\n        }\n    }\n\n    /// @notice\n    mapping(address => address[]) MadicineWtoD;\n    /// @notice\n    mapping(address => address) MadicineWtoDTxContract;\n\n    /// @notice\n    /// @dev Sub Contract for Madicine Transfer from Wholesaler to Distributer\n    /// @param BatchID Madicine BatchID\n    /// @param Shipper Transporter Ethereum Network Address\n    /// @param Receiver Distributer Ethereum Network Address\n    function transferMadicineWtoD(\n        address BatchID,\n        address Shipper,\n        address Receiver\n    ) public {\n        require(\n            UsersDetails[msg.sender].role == roles.wholesaler &&\n            msg.sender == Madicine(BatchID).getWDP()[0],\n            \"Only Wholesaler or current owner of package can call this function\"\n        );\n        MadicineW_D wd = new MadicineW_D(\n            BatchID,\n            msg.sender,\n            Shipper,\n            Receiver\n        );\n        MadicineWtoD[msg.sender].push(address(wd));\n        MadicineWtoDTxContract[BatchID] = address(wd);\n    }\n\n    /// @notice\n    /// @dev Get Madicine Batch Count\n    /// @return Number of Batches\n    function getBatchesCountWD() public view returns (uint count){\n        require(\n            UsersDetails[msg.sender].role == roles.wholesaler,\n            \"Only Wholesaler Can call this function.\"\n        );\n        return MadicineWtoD[msg.sender].length;\n    }\n\n    /// @notice\n    /// @dev Get Madicine BatchID by indexed value of stored data\n    /// @param index Indexed Number\n    /// @return Madicine BatchID\n    function getBatchIdByIndexWD(uint index) public view returns(address packageID) {\n        require(\n            UsersDetails[msg.sender].role == roles.wholesaler,\n            \"Only Wholesaler Can call this function.\"\n        );\n        return MadicineWtoD[msg.sender][index];\n    }\n\n    /// @notice\n    /// @dev Get Sub Contract ID of Madicine Batch Transfer in between Wholesaler to Distributer\n    /// @param BatchID Madicine BatchID\n    /// @return SubContract ID\n    function getSubContractWD(address BatchID) public view returns (address SubContractWD) {\n        // require(\n        //     UsersDetails[msg.sender].role == roles.wholesaler,\n        //     \"Only Wholesaler Can call this function.\"\n        // );\n        return MadicineWtoDTxContract[BatchID];\n    }\n\n/********************************************** Distributer Section ******************************************/\n    /// @notice\n    mapping(address => address[]) MadicineBatchAtDistributer;\n\n    /// @notice\n    mapping(address => address[]) MadicineDtoP;\n\n    /// @notice\n    mapping(address => address) MadicineDtoPTxContract;\n\n    /// @notice\n    /// @dev Transfer Madicine BatchID in between Distributer to Pharma\n    /// @param BatchID Madicine BatchID\n    /// @param Shipper Transporter Ethereum Network Address\n    /// @param Receiver Pharma Ethereum Network Address\n    function transferMadicineDtoP(\n        address BatchID,\n        address Shipper,\n        address Receiver\n    ) public {\n        require(\n            UsersDetails[msg.sender].role == roles.distributer &&\n            msg.sender == Madicine(BatchID).getWDP()[1],\n            \"Only Distributer or current owner of package can call this function\"\n        );\n        MadicineD_P dp = new MadicineD_P(\n            BatchID,\n            msg.sender,\n            Shipper,\n            Receiver\n        );\n        MadicineDtoP[msg.sender].push(address(dp));\n        MadicineDtoPTxContract[BatchID] = address(dp);\n    }\n\n    /// @notice\n    /// @dev Get Madicine BatchID Count\n    /// @return Number of Batches\n    function getBatchesCountDP() public view returns (uint count){\n        require(\n            UsersDetails[msg.sender].role == roles.distributer,\n            \"Only Distributer Can call this function.\"\n        );\n        return MadicineDtoP[msg.sender].length;\n    }\n\n    /// @notice\n    /// @dev Get Madicine BatchID by indexed value of stored data\n    /// @param index Index Number\n    /// @return Madicine BatchID\n    function getBatchIdByIndexDP(uint index) public view returns(address packageID) {\n        require(\n            UsersDetails[msg.sender].role == roles.distributer,\n            \"Only Distributer Can call this function.\"\n        );\n        return MadicineDtoP[msg.sender][index];\n    }\n\n    /// @notice\n    /// @dev Get SubContract ID of Madicine Batch Transfer in between Distributer to Pharma\n    /// @param BatchID Madicine BatchID\n    /// @return SubContract ID\n    function getSubContractDP(address BatchID) public view returns (address SubContractDP) {\n        // require(\n        //     UsersDetails[msg.sender].role == roles.distributer,\n        //     \"Only Distributer Can call this function.\"\n        // );\n        return MadicineDtoPTxContract[BatchID];\n    }\n\n/********************************************** Pharma Section ******************************************/\n    /// @notice\n    mapping(address => address[]) MadicineBatchAtPharma;\n\n    /// @notice\n    /// @dev Madicine Batch Recieved\n    /// @param batchid Madicine BatchID\n    /// @param cid SubContract ID\n    function madicineRecievedAtPharma(\n        address batchid,\n        address cid\n    ) public {\n        require(\n            UsersDetails[msg.sender].role == roles.pharma,\n            \"Only Pharma Can call this function.\"\n        );\n        MadicineD_P(cid).recieveDP(batchid, msg.sender);\n        MadicineBatchAtPharma[msg.sender].push(batchid);\n        sale[batchid] = salestatus(1);\n    }\n\n    enum salestatus {\n        notfound,\n        atpharma,\n        sold,\n        expire,\n        damaged\n    }\n\n    /// @notice\n    mapping(address => salestatus) sale;\n\n    event MadicineStatus(\n        address BatchID,\n        address indexed Pharma,\n        uint status\n    );\n\n    /// @notice\n    /// @dev Update Madicine Batch status\n    /// @param BatchID Madicine BatchID\n    /// @param Status Madicine Batch Status ( sold, expire etc.)\n    function updateSaleStatus(\n        address BatchID,\n        uint Status\n    ) public {\n        require(\n            UsersDetails[msg.sender].role == roles.pharma &&\n            msg.sender == Madicine(BatchID).getWDP()[2],\n            \"Only Pharma or current owner of package can call this function\"\n        );\n        require(sale[BatchID] == salestatus(1), \"madicine Must be at Pharma\");\n        sale[BatchID] = salestatus(Status);\n\n        emit MadicineStatus(BatchID, msg.sender, Status);\n    }\n\n    /// @notice\n    /// @dev Get Madicine Batch status\n    /// @param BatchID Madicine BatchID\n    /// @return Status\n    function salesInfo(\n        address BatchID\n    ) public\n    view\n    returns(\n        uint Status\n    ){\n        return uint(sale[BatchID]);\n    }\n\n    /// @notice\n    /// @dev Get Madicine Batch count\n    /// @return Number of Batches\n    function getBatchesCountP() public view returns(uint count){\n        require(\n            UsersDetails[msg.sender].role == roles.pharma,\n            \"Only Wholesaler or current owner of package can call this function\"\n        );\n        return  MadicineBatchAtPharma[msg.sender].length;\n    }\n\n    /// @notice\n    /// @dev Get Madicine BatchID by indexed value of stored data\n    /// @param index Index Number\n    /// @return Madicine BatchID\n    function getBatchIdByIndexP(uint index) public view returns(address BatchID){\n        require(\n            UsersDetails[msg.sender].role == roles.pharma,\n            \"Only Wholesaler or current owner of package can call this function\"\n        );\n        return MadicineBatchAtPharma[msg.sender][index];\n    }\n}\n",
  "sourcePath": "C:/Users/admin/Downloads/Blockchain_SupplyChain-master/Blockchain_SupplyChain-master/contracts/SupplyChain.sol",
  "compiler": {
    "name": "solc",
    "version": "0.5.1+commit.c8a2cb62.Emscripten.clang"
  },
  "schemaVersion": "3.0.22",
  "updatedAt": "2020-03-24T07:33:00.780Z",
  "networkType": "ethereum",
  "devdoc": {
    "methods": {
      "createRawPackage(bytes32,bytes32,bytes32,uint256,address,address)": {
        "params": {
          "Des": "Transporter Ethereum Network Address",
          "Rcvr": "Manufacturer Ethereum Network Address"
        }
      },
      "getBatchIdByIndexDP(uint256)": {
        "params": {
          "index": "Index Number"
        },
        "return": "Madicine BatchID"
      },
      "getBatchIdByIndexM(uint256)": {
        "params": {
          "index": "Indexed Number"
        },
        "return": "Madicine BatchID"
      },
      "getBatchIdByIndexP(uint256)": {
        "params": {
          "index": "Index Number"
        },
        "return": "Madicine BatchID"
      },
      "getBatchIdByIndexWD(uint256)": {
        "params": {
          "index": "Indexed Number"
        },
        "return": "Madicine BatchID"
      },
      "getBatchesCountDP()": {
        "return": "Number of Batches"
      },
      "getBatchesCountM()": {
        "return": "Number of Batches"
      },
      "getBatchesCountP()": {
        "return": "Number of Batches"
      },
      "getBatchesCountWD()": {
        "return": "Number of Batches"
      },
      "getPackageIDByIndexM(uint256)": {
        "params": {
          "index": "Indexed Value"
        },
        "return": "PackageID"
      },
      "getPackageIdByIndexS(uint256)": {
        "params": {
          "index": "Indexed Value"
        },
        "return": "PackageID"
      },
      "getPackagesCountM()": {
        "return": "Number of Packages at Manufacturer"
      },
      "getPackagesCountS()": {
        "return": "Number of packages"
      },
      "getSubContractDP(address)": {
        "params": {
          "BatchID": "Madicine BatchID"
        },
        "return": "SubContract ID"
      },
      "getSubContractWD(address)": {
        "params": {
          "BatchID": "Madicine BatchID"
        },
        "return": "SubContract ID"
      },
      "getUserInfo(address)": {
        "params": {
          "User": "User Ethereum Network Address"
        },
        "return": "User Details"
      },
      "getUserbyIndex(uint256)": {
        "params": {
          "index": "Indexed Number"
        },
        "return": "User Details"
      },
      "getUsersCount()": {
        "return": "Number of registered Users"
      },
      "madicineReceived(address,address)": {
        "params": {
          "batchid": "Madicine BatchID",
          "cid": "Sub Contract ID for Madicine (if transaction Wholesaler to Distributer)"
        }
      },
      "madicineRecievedAtPharma(address,address)": {
        "params": {
          "batchid": "Madicine BatchID",
          "cid": "SubContract ID"
        }
      },
      "manufacturMadicine(bytes32,bytes32,uint256,address,address,uint256)": {
        "params": {
          "Des": "Description of madicine batch",
          "Quant": "Number of Units",
          "RM": "RawMatrials Information",
          "Rcvr": "Receiver Ethereum Network Address",
          "RcvrType": "Receiver Type Ethier Wholesaler(1) or Distributer(2)",
          "Shpr": "Transporter Ethereum Network Address"
        }
      },
      "rawPackageReceived(address)": {
        "params": {
          "pid": "PackageID or MadicineID"
        }
      },
      "reassigneRole(address,uint256)": {
        "params": {
          "Role": "Role to assigne",
          "userAddress": "User Ethereum Network Address"
        }
      },
      "registerUser(address,bytes32,bytes32,uint256)": {
        "params": {
          "EthAddress": "Ethereum Network Address of User",
          "Location": "User Location",
          "Name": "User name",
          "Role": "User Role"
        }
      },
      "revokeRole(address)": {
        "params": {
          "userAddress": "User Ethereum Network Address"
        }
      },
      "salesInfo(address)": {
        "params": {
          "BatchID": "Madicine BatchID"
        },
        "return": "Status"
      },
      "transferMadicineDtoP(address,address,address)": {
        "params": {
          "BatchID": "Madicine BatchID",
          "Receiver": "Pharma Ethereum Network Address",
          "Shipper": "Transporter Ethereum Network Address"
        }
      },
      "transferMadicineWtoD(address,address,address)": {
        "params": {
          "BatchID": "Madicine BatchID",
          "Receiver": "Distributer Ethereum Network Address",
          "Shipper": "Transporter Ethereum Network Address"
        }
      },
      "updateSaleStatus(address,uint256)": {
        "params": {
          "BatchID": "Madicine BatchID",
          "Status": "Madicine Batch Status ( sold, expire etc.)"
        }
      }
    }
  },
  "userdoc": {
    "methods": {
      "constructor": "@dev Initiate SupplyChain Contract",
      "createRawPackage(bytes32,bytes32,bytes32,uint256,address,address)": {
        "notice": "@dev Create new raw package by Supplier"
      },
      "getBatchIdByIndexDP(uint256)": {
        "notice": "@dev Get Madicine BatchID by indexed value of stored data"
      },
      "getBatchIdByIndexM(uint256)": {
        "notice": "@dev Get Madicine BatchID by indexed value of stored data"
      },
      "getBatchIdByIndexP(uint256)": {
        "notice": "@dev Get Madicine BatchID by indexed value of stored data"
      },
      "getBatchIdByIndexWD(uint256)": {
        "notice": "@dev Get Madicine BatchID by indexed value of stored data"
      },
      "getBatchesCountDP()": {
        "notice": "@dev Get Madicine BatchID Count"
      },
      "getBatchesCountM()": {
        "notice": "@dev Get Madicine Batch Count"
      },
      "getBatchesCountP()": {
        "notice": "@dev Get Madicine Batch count"
      },
      "getBatchesCountWD()": {
        "notice": "@dev Get Madicine Batch Count"
      },
      "getPackageIDByIndexM(uint256)": {
        "notice": "@dev Get PackageID by Indexed value of stored data"
      },
      "getPackageIdByIndexS(uint256)": {
        "notice": "@dev Get PackageID by Indexed value of stored data"
      },
      "getPackagesCountM()": {
        "notice": "@dev Get Package Count at Manufacturer"
      },
      "getPackagesCountS()": {
        "notice": "@dev  Get Count of created package by supplier(caller)"
      },
      "getSubContractDP(address)": {
        "notice": "@dev Get SubContract ID of Madicine Batch Transfer in between Distributer to Pharma"
      },
      "getSubContractWD(address)": {
        "notice": "@dev Get Sub Contract ID of Madicine Batch Transfer in between Wholesaler to Distributer"
      },
      "getUserInfo(address)": {
        "notice": "@dev Get User Information/ Profile"
      },
      "getUserbyIndex(uint256)": {
        "notice": "@dev Get User by Index value of stored data"
      },
      "getUsersCount()": {
        "notice": "@dev Get Number of registered Users"
      },
      "madicineReceived(address,address)": {
        "notice": "@dev Madicine Batch Received"
      },
      "madicineRecievedAtPharma(address,address)": {
        "notice": "@dev Madicine Batch Recieved"
      },
      "manufacturMadicine(bytes32,bytes32,uint256,address,address,uint256)": {
        "notice": "@dev Create Madicine Batch"
      },
      "rawPackageReceived(address)": {
        "notice": "@dev Update Package / Madicine batch recieved status by ethier Manufacturer or Distributer"
      },
      "reassigneRole(address,uint256)": {
        "notice": "@dev Reassigne new role to User"
      },
      "registerUser(address,bytes32,bytes32,uint256)": {
        "notice": "@dev Register New user by Owner"
      },
      "revokeRole(address)": {
        "notice": "@dev Revoke users role"
      },
      "salesInfo(address)": {
        "notice": "@dev Get Madicine Batch status"
      },
      "transferMadicineDtoP(address,address,address)": {
        "notice": "@dev Transfer Madicine BatchID in between Distributer to Pharma"
      },
      "transferMadicineWtoD(address,address,address)": {
        "notice": "@dev Sub Contract for Madicine Transfer from Wholesaler to Distributer"
      },
      "updateSaleStatus(address,uint256)": {
        "notice": "@dev Update Madicine Batch status"
      }
    }
  }
}